:060000000A128A11DF2F35
:10000C007E088A007F08820006200A128A1180006E
:10001C00840A04087D0603190034FF0A0319FE0A3A
:10002C000A2883120313A4007808AA007708A900F1
:10003C007603031D62282908A0002008A8002A08BE
:10004C00A0002008A7007708A0007808A100790874
:10005C00A2007A08A30010300310A30CA20CA10C70
:10006C00A00CFF3E031D32282108AA002008A9007D
:10007C0029080339A0002008A60029081C39A00073
:10008C0002300310A00DFF3E031D47280310200D66
:10009C00A1002108A607A6152A08A1002908A0007E
:1000AC0005300310A10CA00CFF3E031D572820089F
:1000BC00A2002208A50083282A08A1002908A00074
:1000CC000310A10CA00C0310A10CA00C0310A10C8C
:1000DC00A00C2008A2002208A50029080739A000BE
:1000EC0004300310A00DFF3E031D77280310200DD4
:1000FC00A1002108A600A801A7012530A000200816
:10010C00F1000430A1002108F20024080A168A111B
:10011C00CB210800F600F501F50A8A29A7305329EE
:10012C00933053298930532987303D298530EF2866
:10013C008430EF2884303D29843047298130EF28E2
:10014C0081303D298030EF2880303D29F701D130B6
:10015C004B29F701C030F4007408F8008030622994
:10016C00F501013008007608013A03199428033A86
:10017C0003199628013A03199828073A03199A2863
:10018C00013A03199C28033A03199E28013A0319D2
:10019C00A0280F3A0319A228013A0319A428033AFC
:1001AC000319A628013A0319A828073A0319AA2803
:1001BC00013A0319AC28033A0319AF28B62895293C
:1001CC003F3031296730EF285330EF284E303D292E
:1001DC004930F4007408F70056293A293C29433079
:1001EC003D29502941303D2940303D29F701CA3085
:1001FC004B29F501013008007608013A0319E6286D
:10020C00033A0319E828013A0319EA28063A0319B4
:10021C00EC28033A0319EE28013A0319F2280F3A95
:10022C000319F328013A0319F428033A0319F528A2
:10023C00013A0319F728073A0319F828013A031968
:10024C00FA28033A0319FC28FF2895291830472966
:10025C0049305329C430F4007408F700FF30F4001F
:10026C007408F80087306229443053294430F40074
:10027C007408F700E530F4007408F8008330622944
:10028C004430F4007408F700D330F4007408F8001C
:10029C0081306229413053294030F4007408F70052
:1002AC00F630F4007408F80084306229F701D93074
:1002BC00F4007408F8008230F4007408F9009529F1
:1002CC00F501013008007608063A03192C29013A89
:1002DC0003192E290F3A03193029013A03193A2927
:1002EC00033A03193C29013A03194629073A031921
:1002FC005029013A03195229033A03195C2966293A
:10030C009529F501013008007308003A0319692991
:10031C00013A03190229033A0319B92887297508E8
:10032C000319B6297708F4007408F1002A300A166C
:10033C008A1128210A128A117808F4007408F10035
:10034C0029300A168A1128210A128A117908F40018
:10035C007408F10028300A168A1128210030080090
:10036C0001300800D330831603138700F830860061
:10037C00F03085008113303083120313900020304D
:10038C009400831603131417831203130614061513
:10039C000715023083120313DE000430DD00B93080
:1003AC00DC00DC0BD729DD0BD729DE0BD729DE29A6
:1003BC000D3083120313DC005C08BD000230DD003D
:1003CC005D08BE0000300A168A11E4200A128A1158
:1003DC00073083120313AE00DF30AD000030AC00E9
:1003EC000030AB0000300A168A1191260A128A11CD
:1003FC00073083120313AE00DF30AD000030AC00C9
:10040C000030AB0002300A168A1191260A128A11AA
:10041C00073083120313AE00DF30AD000030AC00A8
:10042C000030AB0004300A168A1191260A128A1188
:10043C0000300A168A11A0200A128A110A128A1593
:10044C005D240A128A11F6017F3083120313DC003B
:10045C005C08F7009F30DD005D08F800FF30F90004
:10046C00FF30FA0000300A168A1129250A128A1167
:10047C000A3083120313DC005C08A8004F30DD0047
:10048C005D08A9001F30AA00F830AB000230DE0076
:10049C005E08AC0025300A128A151C250A128A1136
:1004AC000A3083120313DC005C08A8004230DD0024
:1004BC005D08A9001F30AA00F830AB000230DE0046
:1004CC005E08AC0032300A128A151C250A128A11F9
:1004DC000A3083120313DC005C08A8004430DD00F2
:1004EC005D08A9001F30AA00F830AB000230DE0016
:1004FC005E08AC003F300A128A151C250A128A11BC
:10050C000A3083120313DC005C08A8003230DD00D3
:10051C005D08A9001F30AA00F830AB000230DE00E5
:10052C005E08AC004C300A128A151C250A128A117E
:10053C00023083120313DE000430DD00B930DC001E
:10054C00DC0BA62ADD0BA62ADE0BA62AAD2A83120B
:10055C000313061E6F1CC72A6F1083120313061A8F
:10056C00C72A023083120313DE000430DD00B930D9
:10057C00DC00DC0BBF2ADD0BBF2ADE0BBF2AC62A30
:10058C00B32A061E6F18F52A6F1483120313061A6A
:10059C00DF2A023083120313DE000430DD00B93091
:1005AC00DC00DC0BD72ADD0BD72ADE0BD72ADE2AA0
:1005BC00CB2A0A30DC005C08F6005930DD005D08FF
:1005CC00F7001A30DE005E08F800FF30F900FF304B
:1005DC00FA0025300A168A1129250A128A1183126B
:1005EC0003136F1CAD2AF630DC005C08E10004300C
:1005FC000A128A15AF230A128A1105300A128A15BB
:10060C00AF230A128A1106300A128A15AF230A1276
:10061C008A1107300A128A15AF230A128A110A307E
:10062C000A128A15AF230A128A110B300A128A1584
:10063C00AF230A128A110C300A128A15AF230A1240
:10064C008A110D300A128A15AF230A128A110E3044
:10065C000A128A15AF230A128A110F300A128A1550
:10066C00AF230A128A1110300A128A15AF230A120C
:10067C008A1111300A128A15AF230A128A1102301C
:10068C0083120313DE000430DD00B930DC00DC0B18
:10069C004D2BDD0B4D2BDE0B4D2B542BAD2A83122A
:1006AC000313C4000A30F8000030F900E830F00001
:1006BC000330F1003D08F3003C08F2000A168A11E1
:1006CC0036230A128A117108FB007008FA000A1608
:1006DC008A11FA210A128A117808303E8312031308
:1006EC00C1004108C8000A30F8000030F90064303D
:1006FC00F0000030F1003D08F3003C08F2000A164F
:10070C008A1136230A128A117108FB007008FA004C
:10071C000A168A11FA210A128A117808303E8312BD
:10072C000313C1004108C7000A30F8000030F9007B
:10073C000A30F0000030F1003D08F3003C08F200F4
:10074C000A168A1136230A128A117108FB007008E6
:10075C00FA000A168A11FA210A128A117808303E18
:10076C0083120313C1004108C6000A30F8000030A0
:10077C00F9003D08FB003C08FA000A168A11FA2120
:10078C000A128A117808303E83120313C100410803
:10079C00C5006108C1004108A8004408C200420815
:1007AC00A9000030AA00F830AB00AC01AC0A023052
:1007BC000A128A151C250A128A1183120313610866
:1007CC00C1004108A8003A08C2004208A900003044
:1007DC00AA00F830AB00AC01AC0A09300A128A1539
:1007EC001C250A128A11831203136108C1004108E7
:1007FC00A8003B08C2004208A9000030AA00F8304B
:10080C00AB00AC01AC0A10300A128A151C250A1276
:10081C008A110330831203133D02E83003193C02A2
:10082C00031C1E2C6108C1004108A8004808252C97
:10083C00831203136108C1004108A8002030C200D4
:10084C004208A9000030AA00AB00AC01AC0A3C3055
:10085C000A128A151C250A128A11003083120313FE
:10086C003D02643003193C02031C422C6108C10098
:10087C004108A8004708492C831203136108C100E2
:10088C004108A8002030C2004208A9000030AA008C
:10089C00AB00AC01AC0A43300A128A151C250A12B3
:1008AC008A110030831203133D020A3003193C02F3
:1008BC00031C662C6108C1004108A80046086D2C79
:1008CC00831203136108C1004108A8002030C20044
:1008DC004208A9000030AA00AB00AC01AC0A4A30B7
:1008EC000A128A151C250A128A1183120313610835
:1008FC00C1004108A8004508C2004208A900003008
:10090C00AA00AB00AC01AC0A51300A128A151C25A6
:10091C000A128A11831203136108C1004108A8004E
:10092C003E08C2004208A9001F30AA000030AB00EC
:10093C00AC01AC0A6A300A128A151C250A128A11FB
:10094C00831203136108C1004108A8003F08C200CC
:10095C004208A9001F30AA000030AB00AC01AC0A61
:10096C0071300A128A151C250A128A11831203137C
:10097C006108C1004108A8004008C2004208A90053
:10098C001F30AA000030AB00AC01AC0A78300A1260
:10099C008A151C250A128A1183120313061A0800E1
:1009AC006F1808006F1483120313061AED2C023013
:1009BC0083120313C3000430C200B930C100C10B51
:1009CC00E52CC20BE52CC30BE52CEC2CD92C0A30F6
:1009DC00C1004108F6005930C2004208F7001A3035
:1009EC00C3004308F800FF30F900FF30FA0025304F
:1009FC000A168A112925080083120313CE00CF0191
:100A0C00D001B62FFF30F6000030F7008316031329
:100A1C00270883120313C900CA014908F0004A08C9
:100A2C00F1006430F2000030F3000A168A116421E0
:100A3C000A128A117108F9007008F8000A168A1156
:100A4C00CE240A128A11770883120313D000760879
:100A5C00CF004C30C9004908BA002030CA004A08FF
:100A6C00BB005008BD004F08BC002530CB004B0824
:100A7C00BE002030CC004C08BF002030CD004D080B
:100A8C00C00045300A128A1155230800831603133F
:100A9C002708D83E83120313CF00FF300318003011
:100AAC00D0005430C9004908BA002030CA004A08A6
:100ABC00BB005008BD004F08BC007B30CB004B087E
:100ACC00BE004330CC004C08BF002030CD004D0898
:100ADC00C00043300A128A11552308008030F600FA
:100AEC000030F70083160313270883120313C90081
:100AFC00CA014908F0004A08F1006430F2000030E5
:100B0C00F3000A168A1164210A128A117108F9007D
:100B1C007008F8000A168A11CE240A128A11760877
:100B2C009C3E83120313CF0077080318013EFF3E4F
:100B3C00D0005430C9004908BA004630CA004A08EF
:100B4C00BB005008BD004F08BC002530CB004B0843
:100B5C00BE002030CC004C08BF002030CD004D082A
:100B6C00C00053300A128A11552308008030F60059
:100B7C000030F70083160313270883120313C900F0
:100B8C00CA014908F0004A08F1006430F200003054
:100B9C00F3000A168A1164210A128A117108F900ED
:100BAC007008F8000A168A11CE240A128A117608E7
:100BBC009C3E83120313CF0077080318013EFF3EBF
:100BCC00D0005430C9004908BA004630CA004A085F
:100BDC00BB005008BD004F08BC002530CB004B08B3
:100BEC00BE002030CC004C08BF002030CD004D089A
:100BFC00C0004C300A128A115523080083160313C7
:100C0C00270883120313C900CA014908F0004A08D7
:100C1C00F1000330F2000030F3000A168A1164214F
:100C2C000A128A11710883120313D0007008CF00C6
:100C3C005030C9004908BA002030CA004A08BB002D
:100C4C005008BD004F08BC006B30CB004B08BE00F9
:100C5C005030CC004C08BF006130CD004D08C000B6
:100C6C0046300A128A1155230800831603132708ED
:100C7C0083120313C900CA014908CF004A08D000E7
:100C8C004130C9004908BA005030CA004A08BB00BC
:100C9C005008BD004F08BC006B30CB004B08BE00A9
:100CAC005030CC004C08BF006130CD004D08C00066
:100CBC004D300A128A11552308000430F60000301A
:100CCC00F70083160313270883120313C900CA0104
:100CDC004908CA00C9018316031328088312031399
:100CEC004907F8000030031801304A07F9000A16CA
:100CFC008A11CE240A128A11770883120313D000AA
:100D0C007608CF005030C9004908BA004D30CA00EF
:100D1C004A08BB005008BD004F08BC007230CB0025
:100D2C004B08BE007030CC004C08BF006D30CD00BD
:100D3C004D08C00052300A128A1155230800831640
:100D4C000313270883120313C900CA014908CF00F3
:100D5C004A08D0005330C9004908BA002030CA00F4
:100D6C004A08BB005008BD004F08BC006B30CB00DC
:100D7C004B08BE002F30CC004C08BF006830CD00B3
:100D8C004D08C00056300A128A1155230800023053
:100D9C00F6000030F70083160313270883120313A1
:100DAC00C900CA014908F8004A08F9000A168A1154
:100DBC00CE240A128A117608C03E83120313CF0088
:100DCC0077080318013EFF3ED0004530C9004908A2
:100DDC00BA002030CA004A08BB005008BD004F08BA
:100DEC00BC007B30CB004B08BE002030CC004C0844
:100DFC00BF002030CD004D08C00054300A128A11BB
:100E0C0055230800831603132708D83E83120313B7
:100E1C00CF00FF3003180030D0004130C900490822
:100E2C00BA005430CA004A08BB005008BD004F0835
:100E3C00BC007B30CB004B08BE004330CC004C08D0
:100E4C00BF002030CD004D08C00049300A128A1175
:100E5C00552308006430F6000030F70083160313A6
:100E6C00270883120313C900CA014908CA00C90123
:100E7C00831603132808831203134907F800003064
:100E8C00031801304A07F9000A168A11CE240A12F7
:100E9C008A11770883120313D0007608CF004130F3
:100EAC00C9004908BA004630CA004A08BB005008BD
:100EBC00BD004F08BC006730CB004B08BE002F3084
:100ECC00CC004C08BF007330CD004D08C0004D3035
:100EDC000A128A1155230800FF30F6000030F70083
:100EEC0083160313270883120313C900CA01490888
:100EFC00F0004A08F1006430F2000030F3000A16EA
:100F0C008A1164210A128A117108F9007008F8001C
:100F1C000A168A11CE240A128A1177088312031337
:100F2C00D0007608CF005030C9004908BA002030F4
:100F3C00CA004A08BB005008BD004F08BC00253051
:100F4C00CB004B08BE002030CC004C08BF0020303A
:100F5C00CD004D08C00054300A128A1155230800E8
:100F6C00831203134E08043A0319082D013A03198E
:100F7C004C2D033A0319742D013A0319BC2D0D3A6B
:100F8C000319042E013A03193B2E073A0319632E59
:100F9C00013A0319A52E033A0319CD2E013A031970
:100FAC00082F1F3A0319302F013A0319722FDE2F25
:100FBC0008008313C330FD001030FE009530FF0095
:100FCC00B83084000A128A110A200A128A11A03041
:100FDC008400B8300A168A118D200A128A115F30EB
:100FEC0084006F300A168A118D20EF0183010A12DA
:100FFC008A11B829FF1B0A2883137F18831700084E
:10100C00840A0319FF0A08007F087F398A00040844
:10101C00840A0319FF0A82000034003400340034BF
:10102C000034003400345F340034003400340734AE
:10103C0000340734003414347F3414347F341434C3
:10104C0024342A347F342A341234233413340834AD
:10105C0064346234363449345534223450340034D8
:10106C00053403340034003400341C34223441344D
:10107C0000340034413422341C34003408342A3413
:10108C001C342A340834083408343E340834083408
:10109C00003450343034003400340834083408340C
:1010AC0008340834003460346034003400342034A4
:1010BC0010340834043402343E3451344934453449
:1010CC003E34003442347F34403400344234613492
:1010DC005134493446342134413445344B34313461
:1010EC001834143412347F341034273445344534D6
:1010FC00453439343C344A3449344934303401347D
:10110C0071340934053403343634493449344934A0
:10111C00363406344934493429341E3400343634D8
:10112C003634003400340034563436340034003451
:10113C000034083414342234413414341434143448
:10114C00143414344134223414340834003402344A
:10115C00013451340934063432344934793441344D
:10116C003E347E341134113411347E347F3449349E
:10117C004934493436343E344134413441342234D8
:10118C007F344134413422341C347F344934493463
:10119C00493441347F3409340934013401343E3448
:1011AC0041344134513432347F34083408340834F7
:1011BC007F34003441347F344134003420344034A3
:1011CC0041343F3401347F340834143422344134F4
:1011DC007F3440344034403440347F34023404345F
:1011EC0002347F347F340434083410347F343E347A
:1011FC004134413441343E347F34093409340934A8
:10120C0006343E344134513421345E347F34093455
:10121C001934293446344634493449344934313448
:10122C00013401347F34013401343F3440344034D0
:10123C0040343F341F342034403420341F347F3446
:10124C002034183420347F34633414340834143488
:10125C006334033404347834043403346134513447
:10126C00493445344334003400347F344134413400
:10127C0002340434083410342034413441347F3483
:10128C000034003404340234013402340434403465
:10129C00403440344034403400340134023404349B
:1012AC000034203454345434543478347F34483437
:1012BC00443444343834383444344434443420349E
:1012CC0038344434443448347F343834543454340B
:1012DC005434183408347E3409340134023408345C
:1012EC001434543454343C347F34083404340434CB
:1012FC007834003444347D34403400342034403469
:10130C0044343D34003400347F34103428344434B5
:10131C00003441347F34403400347C340434183489
:10132C00043478347C340834043404347834383459
:10133C0044344434443438347C3414341434143445
:10134C00083408341434143418347C347C340834A1
:10135C00043404340834483454345434543420346D
:10136C0004343F344434403420343C34403440342E
:10137C0020347C341C342034403420341C343C3431
:10138C004034303440343C34443428341034283421
:10139C0044340C345034503450343C34443464347D
:1013AC0054344C344434003406340934093406348F
:1013BC0000340034003400340034003400345F3422
:1013CC00003400340034073400340734003414344F
:1013DC007F3414347F34143424342A347F342A3444
:1013EC0012342334133408346434623436344934BC
:1013FC005534223450340034053403340034003472
:10140C0000341C342234413400340034413422344E
:10141C001C34003408342A341C342A34083408347C
:10142C0008343E340834083400345034303400343A
:10143C000034083408340834083408340034603478
:10144C006034003400342034103408340434023452
:10145C003E345134493445343E34003442347F34C4
:10146C0040340034423461345134493446342134EC
:10147C00413445344B3431341834143412347F3401
:10148C001034273445344534453439343C344A34EB
:10149C00493449343034013471340934053403345B
:1014AC0036344934493449343634063449344934B1
:1014BC0029341E34003436343634003400340034CD
:1014CC0056343634003400340034083414342234A6
:1014DC004134143414341434143414344134223458
:1014EC0014340834003402340134513409340634D1
:1014FC0032344934793441343E347E34113411342D
:10150C0011347E347F3449344934493436343E34D2
:10151C0041344134413422347F3441344134223417
:10152C001C347F3449344934493441347F340934D0
:10153C000934013401343E344134413451343234B1
:10154C007F340834083408347F34003441347F3419
:10155C00413400342034403441343F3401347F343E
:10156C0008341434223441347F3440344034403411
:10157C0040347F340234043402347F347F340434F6
:10158C00083410347F343E344134413441343E34D9
:10159C007F3409340934093406343E34413451342F
:1015AC0021345E347F3409341934293446344634BA
:1015BC004934493449343134013401347F340134F1
:1015CC0001343F344034403440343F341F342034F1
:1015DC00403420341F347F342034183420347F348A
:1015EC0063341434083414346334033404347834DA
:1015FC0004340334613451344934453443340034B5
:10160C0000347F344134413402340434083410340F
:10161C002034413441347F340034003404340234F7
:10162C0001340234043440344034403440344034C7
:10163C00003401340234043400342034543454342F
:10164C00543478347F344834443444343834383463
:10165C0044344434443420343834443444344834EA
:10166C007F343834543454345434183408347E347D
:10167C0009340134023408341434543454343C34B2
:10168C007F340834043404347834003444347D34E6
:10169C00403400342034403444343D34003400347D
:1016AC007F34103428344434003441347F34403493
:1016BC0000347C3404341834043478347C340834E6
:1016CC0004340434783438344434443444343834B2
:1016DC007C3414341434143408340834143414346E
:1016EC0018347C347C3408340434043408344834DE
:1016FC00543454345434203404343F34443440345B
:10170C0020343C344034403420347C341C34203479
:10171C00403420341C343C344034303440343C3479
:10172C00443428341034283444340C345034503479
:10173C0050343C344434643454344C3444340034E5
:08174C000634093409340634A7
:10175600831203130715080083120313DB00DA0153
:101766005B08D100510883160313BD0000308312B5
:101776000313B7000030B6000730B500DF30B40001
:101786000830D1005108B800BB30D2005208B90069
:101796000A168A115E220A128A158312031310147E
:1017A6000C1083120313871C392C0C1CD42B0C1021
:1017B6000130D1005108DA0709305A02031CD42B34
:1017C60010100C30D1005108E1070A30A400003097
:1017D600A5005B08D100D2015108A6005208A70057
:1017E6000A168A1181240A128A1583120313240801
:1017F600303ED3005308BA002030D4005408BB0052
:101806000030BC00BD002D30D5005508BE002D307F
:10181600D6005608BF002D30D7005708C0000A3042
:10182600A4000030A5000A30F6000030F7005B087F
:10183600D800D9015808F8005908F9000A168A1183
:10184600CE240A128A15770883120313A700760896
:10185600A6000A168A1181240A128A158312031316
:101866002408303E0A128A11552308006D30D10033
:101876005108B100A430D2005208B200B4300A16A2
:101886008A1137240A128A15E830831603133406A0
:1018960007300319350636043704031D08000C30DB
:1018A60083120313D1005108E1075B080A128A115B
:1018B600022508008312031306150330F4000830CE
:1018C600F3007730F200F20B662CF30B662CF40B68
:1018D600662C8312031306111A30F300F830F20057
:1018E600F20B732CF30B732C0000831203130615F3
:1018F6001A30F300F830F200F20B7F2CF30B7F2C3A
:10190600000001300A168A11B9200A128A1503301E
:10191600F4000830F3007730F200F20B902CF30B52
:10192600902CF40B902C11300A168A11B9200A1249
:101936008A150330F4000830F3007730F200F20B1A
:10194600A22CF30BA22CF40BA22C3A300A168A1105
:10195600B9200A128A1505300A168A11C6200A12FB
:101966008A1536300A168A11B9200A128A15C0302D
:101976000A168A11C6200A128A152D300A168A11ED
:10198600B9200A128A1500300A168A11C6200A12D0
:101996008A15F501F50A203075020318E22C750840
:1019A600F20072070A168A11C6200A128A15013039
:1019B600F2007208F50720307502031CD22CF501DF
:1019C600403075020318F52C75080A168A11C620D0
:1019D6000A128A150130F2007208F50740307502C6
:1019E600031CE72C00300A168A11C6200A128A1533
:1019F600F501F50A203075020318112D7508F2005D
:101A060072070A168A11C6200A128A150130F200D8
:101A16007208F50720307502031C012D13300A16D3
:101A26008A11B9200A128A1529300A168A11B92094
:101A3600080083120313B700B901063039020318F0
:101A4600080005303906031D2A2DB601542D290834
:101A5600E03EF000FF3003180030F1000530F200E0
:101A66000030F3000A168A1164210A128A158312BD
:101A7600031339087007AD000030031801307107F1
:101A8600AE0089302E07FF00DE302D0784000318D4
:101A9600FF0A0A128A1500200A128A15AF002F08BB
:101AA600B600B801083038020318F02D361C962D02
:101AB6002C08AD002D08F00038080A168A11D3202C
:101AC6000A128A15831203132807AE002E08F600A1
:101AD6002C08AF002F08F00039080A168A11D32007
:101AE6000A128A15831203133707B0002C08300731
:101AF600B1003108F7002C08B2003208F0003808AF
:101B06000A168A11D3200A128A158312031328078C
:101B1600B3002C083307B4003408F8002B08FA0089
:101B26002A08F900D22D831203132C08AD002D08C4
:101B3600F00038080A168A11D3200A128A15831271
:101B460003132807AE002E08F6002C08AF002F0856
:101B5600F00039080A168A11D3200A128A15831250
:101B660003133707B0002C083007B1003108F7001F
:101B76002C08B2003208F00038080A168A11D32061
:101B86000A128A15831203132807B3002C08330799
:101B9600B4003408F800FF30F900FF30FA002C08D2
:101BA600B5003508F00039080A168A11D3200A1242
:101BB6008A158312031337070A168A1129250A1272
:101BC6008A15031083120313B60C0130AD002D08DD
:101BD600B80708303802031C592D0130AD002D0816
:101BE600B907202D83120313B301B401B40A0030E0
:101BF600B1000030B0000030AF000030AE00003061
:101C0600B8000030B7000030B6000030B500340828
:101C1600FB007B08F6003108FA003008F9002F08AF
:101C2600F8002E08F70020300A168A1101260A123B
:101C36008A15831203133408FB007B08F60031086B
:101C4600FA003008F9002F08F8002E08F7002430B3
:101C56000A168A1101260A128A15831203133408FA
:101C6600FB007B08F6003808FA003708F90036084A
:101C7600F8003508F70000300A168A1101260A1204
:101C86008A15831203133308FB007B08F600380815
:101C9600FA003708F9003608F8003508F70004306E
:101CA6000A168A1101260A128A15831203133408AA
:101CB600FB007B08F6003808FA003708F9003608FA
:101CC600F8003508F70008300A168A1101260A12AC
:101CD6008A15831203133308FB007B08F6003808C5
:101CE600FA003708F9003608F8003508F700103012
:101CF6000A168A1101260A128A158312031334085A
:101D0600FB007B08F6003808FA003708F9003608A9
:101D1600F8003508F70014300A168A1101260A124F
:101D26008A15831203133308FB007B08F600380874
:101D3600FA003708F9003608F8003508F7001830B9
:101D46000A168A1101260A128A153030FB007B0812
:101D560083120313AB004030FB007B08AC0050300D
:101D6600FB007B08AD00B2010E3032020318EA2EEA
:101D7600F1012B080A168A1128210A128A15F10187
:101D8600831203132C080A168A1128210A128A15AF
:101D9600F101831203132D080A168A1128210A124B
:101DA6008A150130FB007B0883120313AB07013051
:101DB600FB007B08AC070130FB007B08AD07013058
:101DC600FB007B08B2070E303202031CBB2EF1016A
:101DD60060300A168A1128210A128A15F10170301C
:101DE6000A168A1128210800F9007708840083134F
:101DF6008001780884008001840A8001840A8001B9
:101E0600840A80017A3083120313A0002008F100AF
:101E16000430A1002108F20079080A168A112C2242
:101E26000A128A157B0883120313A00005300310DB
:101E3600A00CFF3E031D1A2F7A08A100A201031071
:101E4600A10DA20D0310A10DA20D0310A10DA20D4F
:101E560020082107A3000030031801302207A40040
:101E66002308A5002408A6000030A61BFF30A70003
:101E7600A80078088400250883138000840A2608B1
:101E86008000840A27088000840A28088000FB1D39
:101E960008007B080339A000A101A201A30178086C
:101EA60084000008A400840A0008A500840A00082B
:101EB600A600840A0008A70002300310A40DA50D91
:101EC600A60DA70DFF3E031D602F2408A0072508B9
:101ED6000318250F6F2F702FA10726080318260F4A
:101EE600752F762FA20727080318270AA307780855
:101EF600840020088000840A21088000840A2208C1
:101F06008000840A230880007C08A000A101A201A9
:101F1600A301780884000008A400840A0008A5002C
:101F2600840A0008A600840A0008A70008300310E7
:101F3600A40DA50DA60DA70DFF3E031D9A2F24087F
:101F4600A00725080318250FA92FAA2FA1072608E1
:101F56000318260FAF2FB02FA20727080318270A4A
:101F6600A3077808840020088000840A21088000DE
:101F7600840A22088000840A230880007D08A000C5
:101F8600A101A201A301780884000008A400840A24
:101F96000008A500840A0008A600840A0008A70015
:101FA60008300310A40DA50DA60DA70DFF3E031DB9
:101FB600D42F2408A00725080318250FE32FE42FA4
:101FC600A10726080318260FE92FEA2FA2072708DC
:101FD6000318270AA3077808840020088000840ACB
:101FE60021088000840A22088000840A23088000D1
:0A1FF600770884008001800A0800CB
:10211200831203130711080064008001840A040675
:102122000319003404068E2830344034503402340B
:1021320001340C3455345534553455345534F90082
:102142007908F800780883120313E40064080A1679
:102152008A11A7210800F00070088312031393006C
:1021620083160313141CB1288312031313080800E7
:10217200F100831203138610061071080A168A11E1
:10218200AC208312031306140800F1008312031318
:102192008614061071080A168A11AC2083120313E2
:1021A20006140800F300F201731CDB287008F1002A
:1021B2007108F2070310F00D0310F30C7308031DEE
:1021C200D5287208080083120313C2003D08BF001D
:1021D2003F08FC003E08C0004008FD0042080A1605
:1021E2008A11482783120313C1004108C300080063
:1021F2000A168A1189200A168A11C0300A168A1113
:10220200AC200A168A110A128A15AB230A168A1101
:102212000630F100F10B0B29000008000A168A11A2
:1022220089200A168A11A0300A168A11AC200A16D1
:102232008A1100300A168A11AC200A168A11F1009E
:102242007108F2000A128A15AB2372080800F20024
:102252000A168A1189200A168A1102300A168A1170
:10226200AC200A168A1172080A168A11AC200A16C4
:102272008A1171080A168A11AC200A168A110A12EA
:102282008A15AB230800F2000A168A1189200A1661
:102292008A1103300A168A11AC200A168A117208B2
:1022A2000A168A11AC200A168A1100300A168A11FF
:1022B200AC200A168A11F1007108F3000A128A157D
:1022C200AB2373080800F401F501701C6E29720833
:1022D200F4070318F50A7308F50701300310F20D2D
:1022E200F30DFF3E031D6F2901300310F10CF00CBA
:1022F200FF3E031D762970087104031D66297508C7
:10230200F1007408F0000800F3000A168A1189200F
:102312000A168A1105300A168A11AC200A168A1189
:1023220073080A168A11AC200A168A1171080A1655
:102332008A11AC200A168A1172080A168A11AC2078
:102342000A168A110A128A15AB230800F700E03038
:10235200F4007408F1007708F5007508F2000F30F8
:102362000A168A1185210A168A110F300A168A1155
:1023720044210A168A11F4007408F600E030F400D1
:102382007408F60576087706031DC929003008008F
:1023920001300800F4000A168A1189200A168A11EF
:1023A20002300A168A11AC200A168A1174080A161B
:1023B2008A11AC200A168A11F501720875020318F7
:1023C200F62975087107F300730884008313000867
:1023D2000A168A11AC200A168A110130F30073081A
:1023E200F50772087502031CE2290A128A15AB234B
:1023F2000800780879040319272AFD01FD0AF91B50
:102402000E2A01300310F80DF90DFF3E031D032AB9
:102412000130FC007C08FD07002A79087B02031DBD
:10242200142A78087A02031C1C2A7808FA0279080E
:10243200031CFB03FB0201300310F90CF80CFF3EF6
:10244200031D1D2A0130FD02031D0E2A7B08F9001F
:102452007A08F8000800F5000A168A1189200A167F
:102462008A1103300A168A11AC200A168A117508DD
:102472000A168A11AC200A168A11F601720876022F
:1024820003185A2A00300A168A11AC200A168A1139
:10249200F30076087107F40074088400730883134C
:1024A20080000130F3007308F60772087602031CFD
:1024B200432A0A128A15AB23080083120313BF01B1
:1024C200C001B71F662ABF01BF0A371F6A2AC001AF
:1024D200C00A3708F3003608F2003508F100340864
:1024E200F0004008BA003A08F4003F08BB003B087D
:1024F200F5003808BC003C08F6003908BD003D086C
:10250200F7000A168A11FD220A168A110A168A1182
:10251200952583120313BA003A08BE0008000A1672
:102522008A110F210A168A1183120313AE002E0894
:10253200B000301CA52A61300A168A11F0230A164F
:102542008A11F101F10AB32AB01CBE2A71300A16AF
:102552008A11F0230A168A11023083120313AE0085
:102562002E08F100F2012C300A168A1185210A1672
:102572008A1183120313AF01C22A0430AE002E085F
:10258200AF002F08080083120313AB002B08FB00D7
:102592007B08AC00AC30FB007B08F1006808FC0053
:1025A2007C08F2002C08053E0A168A11CB210A1675
:1025B2008A11831203136703031968176808FB0063
:1025C2007B08F1002C08043E0A168A1128210A16FB
:1025D2008A11831203136E08FB007B08F6006C0855
:1025E200FA006B08F9006A08F8006908F7002C087D
:1025F2000A128A1117200800FA01FB0173088312DC
:102602000313EC007208EB007108EA007008E9009D
:102612007408F8007808E7007508F8007808EE00FA
:102622007608F8007808E800FA01FB017B08803A96
:10263200FF0080307F02031D202B08307A0203182E
:1026420008007A087707F8007808840083130008E6
:10265200F9007A08AC3E8400790880000130FA075C
:102662000318FB0A0030FB07172BF501F60170086F
:10267200710403196D2BF701F70AF11B4C2B013082
:102682000310F00DF10DFF3E031D412B0130F4004C
:102692007408F7073E2B01300310F50DF60DFF3ECF
:1026A200031D4D2B71087302031D592B7008720212
:1026B200031C622B7008F2027108031CF303F3027D
:1026C200751401300310F10CF00CFF3E031D632B57
:1026D2000130F702031D4C2B7608F1007508F0005B
:1026E2000800F900831603133808F5003908F600CC
:1026F2003A08F7000230F4007408FA0079088400FE
:1027020083138001FB0103307B020318AC2B7B088F
:10271200753E840000080A168A1144210A168A119D
:10272200F4007408F800F819A42B7B08753E8400A5
:102732000008013EF40079088400740883138000C5
:10274200FA017A0808000130F4007408FB0703302C
:102752007B02031C882B7A080800F5002A300A162F
:102762008A11B9200A168A1100300A168A11C62067
:102772000A168A1175080A168A11C6200A168A11C3
:1027820000300A168A11C6200A168A1173080A1620
:102792008A11C6200A168A112B300A168A11B9200C
:1027A2000A168A1100300A168A11C6200A168A11E0
:1027B20072080A168A11C6200A168A1100300A16F1
:1027C2008A11C6200A168A1174080A168A11C620AE
:1027D2000A168A112C300A168A11B92008008312AF
:1027E2000313AB002B08A9002908AD006E30A90025
:1027F2002908F7006930AA002A08F8002D080A12F1
:102802008A15F7260A168A11831203132D08FF3E32
:102812000A168A1144210A168A1183120313A90087
:102822002908AC002D08043E0A168A1144210A1612
:102832008A1183120313A9002908E800AC1D242C75
:10284200E701E70A252CE7010F30A9002908E8056E
:10285200AC30A9002908F1006808AA002A08F20091
:102862002D08053E0A168A112C2208008312031332
:10287200B5000A168A1190220A168A11043A03191F
:102882000800831203136E08031DEC176708031D6B
:102892006C1735088400690883138000840A6A086B
:1028A2008000840A6B088000840A6C088000680833
:1028B200B3003108840033088000B601B70137083D
:1028C200803AB30080303302031D692C6808360257
:1028D20003180800831203133608AC3E84008313E6
:1028E2000008B30036083207B40034088400330805
:1028F20080000130B6070318B70A0030B707602C12
:10290200FD0183120313A71F8D2CA609A709A60A8E
:102912000319A70AFD01FD0AA51F942CA409A50904
:10292200A40A0319A50A240825040319C12CFC01D1
:10293200FC0AA51BA82C01300310A40DA50DFF3E17
:10294200031D9D2C0130FB007B08FC079A2C2508F7
:102952002702031DAE2C24082602031CB62C2408D1
:10296200A6022508031CA703A70201300310A50C29
:10297200A40CFF3E031DB72C0130FC02031DA82C42
:102982007D080319C92CA609A709A60A0319A70AD3
:102992002708A5002608A400080083120313A1013A
:1029A200F71FDA2CF609F709F60A0319F70AA1014B
:1029B200A10AF91FE52CF809F909F80A0319F90A1D
:1029C2000130FA007A08A106A201A3017608770471
:1029D20003191C2DA001A00AF71BFB2C01300310C8
:1029E200F60DF70DFF3E031DF02C0130FA007A08B8
:1029F200A007ED2C01300310A20DA30DFF3E031D15
:102A0200FC2C77087902031D082D76087802031C36
:102A1200112D7608F8027708031CF903F902221433
:102A220001300310F70CF60CFF3E031D122D01308E
:102A3200A002031DFB2C21080319242DA209A309BE
:102A4200A20A0319A30A2308F7002208F6000800C5
:102A5200FB00760883120313A0002008F200770817
:102A6200A1002108F3007808A2002208F4007B08E4
:102A72000A168A11AE230A168A11760883120313E4
:102A8200A000A101A009A109A00A0319A10A7808BE
:102A92002007A20021080318210AA3002208013EF0
:102AA200F00023080318013E003EF1007B08A40059
:102AB200A501A409A509A40A0319A50A77082407F0
:102AC200A60025080318250AA7002608013EF200E1
:102AD20027080318013E003EF3000A168A116421FA
:102AE2000A168A117108FD007008FC007C087D043A
:102AF2000319080083120313861406107A080A16B3
:102B02008A11AC200A168A1179080A168A11AC2099
:102B12000A168A118312031306140130FC020030D4
:102B2200031CFD03FD02772D83120313B101B201D1
:102B320033300A168A1172230A168A11831203137A
:102B4200AD002D08AF000130B1070318B20A003002
:102B5200B20702302F06031DB52D0030320232308B
:102B620003193102031C992D323031063204031D40
:102B7200BC2D06300800B101B20133080A168A11D1
:102B8200C4220A168A11083083120313AD002D08DD
:102B9200F1000830AE002E08F2003308FF3E0A169C
:102BA2008A1185210A168A11013083120313B10793
:102BB2000318B20A0030B2073308FF3E0A168A1120
:102BC20044210A168A1183120313AD002D08B000A6
:102BD20030080839AD002D08B00030080319F82D6F
:102BE20000303202323003193102031CD52D32304B
:102BF20031063204031DFF2D0730080000300800A3
:102C020083120313A4007808AA007708A9007603A8
:102C1200031D482E2908A0002008A8002A08A000A9
:102C22002008A7007708A0007808A1007908A20070
:102C32007A08A30010300310A30CA20CA10CA00C64
:102C4200FF3E031D1C2E2108AA002008A900290806
:102C52000339A0002008A60029081C39A000023070
:102C62000310A00DFF3E031D312E0310200DA10005
:102C72002108A607A6152A08A1002908A0000530E8
:102C82000310A10CA00CFF3E031D412E802E29082B
:102C9200A0002008A8002A08A0002008A7007708A2
:102CA200A0007808A1007908A2007A08A3001030D9
:102CB2000310A30CA20CA10CA00CFF3E031D592E65
:102CC2002108AA002008A90029080739A000043019
:102CD2000310A00DFF3E031D692E0310200DA1005D
:102CE2002108A6002A08A1002908A0000310A10CAF
:102CF200A00C0310A10CA00C0310A10CA00C200826
:102D0200A2002208A5002530A0002008F10004300E
:102D1200A1002108F20024080A168A11CB2108001A
:102D220083120313AF00B001B10180300A168A1179
:102D3200A7210A168A11FB007B0883120313B00035
:102D42003008031D0800AE1F282FB101B10A282F39
:102D52003108FB007B08F6002E08FA002D08F90066
:102D62002C08F8002B08F70000300A168A110126F9
:102D72000A168A113C2F831203133108FB007B08C9
:102D8200F6002E08FA002D08F9002C08F8002B088E
:102D9200F70004300A168A1101260A168A113C2FFE
:102DA200831203133108FB007B08F6002E08FA0099
:102DB2002D08F9002C08F8002B08F70008300A1635
:102DC2008A1101260A168A113C2F83120313310835
:102DD200FB007B08F6002E08FA002D08F9002C08EB
:102DE200F8002B08F70010300A168A1101260A167D
:102DF2008A113C2F831203133108FB007B08F60073
:102E02002E08FA002D08F9002C08F8002B08F7000C
:102E120014300A168A1101260A168A113C2F8312CF
:102E220003133108FB007B08F6002E08FA002D0878
:102E3200F9002C08F8002B08F70018300A168A113E
:102E420001260A168A113C2FB001B00A3C2F2F0826
:102E5200003A0319A92E013A0319BC2E033A0319A9
:102E6200D12E013A0319E62E073A0319FB2E013A35
:102E72000319102F252F8312031364080A168A11CF
:102E8200A721FB007B0883120313B0000800831202
:102E92000313BB000A168A11F9200A168A11403060
:102EA20083120313B9003908E40080300A168A112C
:102EB200A7210A168A1183120313B9003908BC002C
:102EC2003C080319662F3C0808007D08B900390840
:102ED200F3007C080A128A1190200A168A11003A1D
:102EE2000319772F831203133C080800831203137C
:102EF2003C08031DFE2F0A128A15F5250A168A11AF
:102F0200033083120313B9003908F1002B300A167B
:102F12008A1128210A168A113C3083120313B90040
:102F22003908F1000C300A168A1128210A168A1172
:102F3200F1010D300A168A1128210A168A11E22F90
:102F4200643083120313B9003908F1006430BA0007
:102F52003A08F20060300A168A1185210A168A118F
:102F6200603083120313B9003908F1006030BA00EF
:102F72003A08F20070300A168A1185210A168A115F
:102F8200EC2F643083120313B9003908F1000430C6
:102F9200BA003A08F20060300A168A1185210A1630
:102FA2008A11603083120313B9003908F100F2016B
:102FB20070300A168A1185210A168A11EC2F013007
:102FC2000800831203133B08003A0319C22F033A85
:102FD2000319A12FE02F8312031364080A168A1122
:102FE200A7210A168A1183120313B9003908BC00FB
:0E2FF2003C080319FE2F3C0808003C080800AC
:02400E003AFF77
:00000001FF
